{
  "_format": "hh-sol-artifact-1",
  "contractName": "RealEstateCrowdfund",
  "sourceName": "contracts/RealEstateCrowdfund.sol",
  "abi": [
    {
      "inputs": [
        {
          "internalType": "address",
          "name": "_usdcToken",
          "type": "address"
        },
        {
          "internalType": "address",
          "name": "_projectOwner",
          "type": "address"
        },
        {
          "internalType": "address",
          "name": "_platformWallet",
          "type": "address"
        },
        {
          "internalType": "uint256",
          "name": "_capitalRequired",
          "type": "uint256"
        }
      ],
      "stateMutability": "nonpayable",
      "type": "constructor"
    },
    {
      "inputs": [
        {
          "internalType": "address",
          "name": "owner",
          "type": "address"
        }
      ],
      "name": "OwnableInvalidOwner",
      "type": "error"
    },
    {
      "inputs": [
        {
          "internalType": "address",
          "name": "account",
          "type": "address"
        }
      ],
      "name": "OwnableUnauthorizedAccount",
      "type": "error"
    },
    {
      "inputs": [
        {
          "internalType": "address",
          "name": "token",
          "type": "address"
        }
      ],
      "name": "SafeERC20FailedOperation",
      "type": "error"
    },
    {
      "anonymous": false,
      "inputs": [
        {
          "indexed": true,
          "internalType": "address",
          "name": "investor",
          "type": "address"
        },
        {
          "indexed": false,
          "internalType": "uint256",
          "name": "amount",
          "type": "uint256"
        }
      ],
      "name": "Invested",
      "type": "event"
    },
    {
      "anonymous": false,
      "inputs": [
        {
          "indexed": true,
          "internalType": "address",
          "name": "previousOwner",
          "type": "address"
        },
        {
          "indexed": true,
          "internalType": "address",
          "name": "newOwner",
          "type": "address"
        }
      ],
      "name": "OwnershipTransferred",
      "type": "event"
    },
    {
      "anonymous": false,
      "inputs": [
        {
          "indexed": false,
          "internalType": "uint256",
          "name": "saleAmount",
          "type": "uint256"
        },
        {
          "indexed": false,
          "internalType": "uint256",
          "name": "totalProfit",
          "type": "uint256"
        }
      ],
      "name": "ProjectLiquidated",
      "type": "event"
    },
    {
      "anonymous": false,
      "inputs": [
        {
          "indexed": true,
          "internalType": "address",
          "name": "investor",
          "type": "address"
        },
        {
          "indexed": false,
          "internalType": "uint256",
          "name": "amount",
          "type": "uint256"
        }
      ],
      "name": "ReturnsClaimed",
      "type": "event"
    },
    {
      "inputs": [],
      "name": "INVESTOR_SHARE",
      "outputs": [
        {
          "internalType": "uint256",
          "name": "",
          "type": "uint256"
        }
      ],
      "stateMutability": "view",
      "type": "function"
    },
    {
      "inputs": [],
      "name": "OWNER_SHARE",
      "outputs": [
        {
          "internalType": "uint256",
          "name": "",
          "type": "uint256"
        }
      ],
      "stateMutability": "view",
      "type": "function"
    },
    {
      "inputs": [],
      "name": "PLATFORM_SHARE",
      "outputs": [
        {
          "internalType": "uint256",
          "name": "",
          "type": "uint256"
        }
      ],
      "stateMutability": "view",
      "type": "function"
    },
    {
      "inputs": [],
      "name": "capitalRequired",
      "outputs": [
        {
          "internalType": "uint256",
          "name": "",
          "type": "uint256"
        }
      ],
      "stateMutability": "view",
      "type": "function"
    },
    {
      "inputs": [],
      "name": "claimReturns",
      "outputs": [],
      "stateMutability": "nonpayable",
      "type": "function"
    },
    {
      "inputs": [],
      "name": "getInvestorCount",
      "outputs": [
        {
          "internalType": "uint256",
          "name": "",
          "type": "uint256"
        }
      ],
      "stateMutability": "view",
      "type": "function"
    },
    {
      "inputs": [
        {
          "internalType": "uint256",
          "name": "amount",
          "type": "uint256"
        }
      ],
      "name": "invest",
      "outputs": [],
      "stateMutability": "nonpayable",
      "type": "function"
    },
    {
      "inputs": [
        {
          "internalType": "uint256",
          "name": "",
          "type": "uint256"
        }
      ],
      "name": "investorList",
      "outputs": [
        {
          "internalType": "address",
          "name": "",
          "type": "address"
        }
      ],
      "stateMutability": "view",
      "type": "function"
    },
    {
      "inputs": [
        {
          "internalType": "address",
          "name": "",
          "type": "address"
        }
      ],
      "name": "investors",
      "outputs": [
        {
          "internalType": "uint256",
          "name": "amountInvested",
          "type": "uint256"
        },
        {
          "internalType": "bool",
          "name": "claimed",
          "type": "bool"
        }
      ],
      "stateMutability": "view",
      "type": "function"
    },
    {
      "inputs": [
        {
          "internalType": "uint256",
          "name": "_saleAmount",
          "type": "uint256"
        }
      ],
      "name": "liquidateProject",
      "outputs": [],
      "stateMutability": "nonpayable",
      "type": "function"
    },
    {
      "inputs": [],
      "name": "owner",
      "outputs": [
        {
          "internalType": "address",
          "name": "",
          "type": "address"
        }
      ],
      "stateMutability": "view",
      "type": "function"
    },
    {
      "inputs": [],
      "name": "platformWallet",
      "outputs": [
        {
          "internalType": "address",
          "name": "",
          "type": "address"
        }
      ],
      "stateMutability": "view",
      "type": "function"
    },
    {
      "inputs": [],
      "name": "projectLiquidated",
      "outputs": [
        {
          "internalType": "bool",
          "name": "",
          "type": "bool"
        }
      ],
      "stateMutability": "view",
      "type": "function"
    },
    {
      "inputs": [],
      "name": "projectOwner",
      "outputs": [
        {
          "internalType": "address",
          "name": "",
          "type": "address"
        }
      ],
      "stateMutability": "view",
      "type": "function"
    },
    {
      "inputs": [],
      "name": "renounceOwnership",
      "outputs": [],
      "stateMutability": "nonpayable",
      "type": "function"
    },
    {
      "inputs": [],
      "name": "saleAmount",
      "outputs": [
        {
          "internalType": "uint256",
          "name": "",
          "type": "uint256"
        }
      ],
      "stateMutability": "view",
      "type": "function"
    },
    {
      "inputs": [],
      "name": "totalInvested",
      "outputs": [
        {
          "internalType": "uint256",
          "name": "",
          "type": "uint256"
        }
      ],
      "stateMutability": "view",
      "type": "function"
    },
    {
      "inputs": [],
      "name": "totalProfit",
      "outputs": [
        {
          "internalType": "uint256",
          "name": "",
          "type": "uint256"
        }
      ],
      "stateMutability": "view",
      "type": "function"
    },
    {
      "inputs": [
        {
          "internalType": "address",
          "name": "newOwner",
          "type": "address"
        }
      ],
      "name": "transferOwnership",
      "outputs": [],
      "stateMutability": "nonpayable",
      "type": "function"
    },
    {
      "inputs": [],
      "name": "usdcToken",
      "outputs": [
        {
          "internalType": "address",
          "name": "",
          "type": "address"
        }
      ],
      "stateMutability": "view",
      "type": "function"
    }
  ],
  "bytecode": "0x60806040523480156200001157600080fd5b5060405162001a5538038062001a558339818101604052810190620000379190620002fc565b33600073ffffffffffffffffffffffffffffffffffffffff168173ffffffffffffffffffffffffffffffffffffffff1603620000ad5760006040517f1e4fbdf7000000000000000000000000000000000000000000000000000000008152600401620000a491906200037f565b60405180910390fd5b620000be816200019360201b60201c565b5083600160006101000a81548173ffffffffffffffffffffffffffffffffffffffff021916908373ffffffffffffffffffffffffffffffffffffffff16021790555082600260006101000a81548173ffffffffffffffffffffffffffffffffffffffff021916908373ffffffffffffffffffffffffffffffffffffffff16021790555081600360006101000a81548173ffffffffffffffffffffffffffffffffffffffff021916908373ffffffffffffffffffffffffffffffffffffffff16021790555080600481905550505050506200039c565b60008060009054906101000a900473ffffffffffffffffffffffffffffffffffffffff169050816000806101000a81548173ffffffffffffffffffffffffffffffffffffffff021916908373ffffffffffffffffffffffffffffffffffffffff1602179055508173ffffffffffffffffffffffffffffffffffffffff168173ffffffffffffffffffffffffffffffffffffffff167f8be0079c531659141344cd1fd0a4f28419497f9722a3daafe3b4186f6b6457e060405160405180910390a35050565b600080fd5b600073ffffffffffffffffffffffffffffffffffffffff82169050919050565b600062000289826200025c565b9050919050565b6200029b816200027c565b8114620002a757600080fd5b50565b600081519050620002bb8162000290565b92915050565b6000819050919050565b620002d681620002c1565b8114620002e257600080fd5b50565b600081519050620002f681620002cb565b92915050565b6000806000806080858703121562000319576200031862000257565b5b60006200032987828801620002aa565b94505060206200033c87828801620002aa565b93505060406200034f87828801620002aa565b92505060606200036287828801620002e5565b91505092959194509250565b62000379816200027c565b82525050565b60006020820190506200039660008301846200036e565b92915050565b6116a980620003ac6000396000f3fe608060405234801561001057600080fd5b506004361061012c5760003560e01c806386001519116100ad578063a4475ce411610071578063a4475ce4146102ee578063cf35ccd31461030c578063ec61b08614610328578063f2fde38b14610346578063fa2af9da146103625761012c565b8063860015191461026c57806389376e401461028a5780638aae995a146102945780638da5cb5b146102b2578063960524e3146102d05761012c565b80635216aeec116100f45780635216aeec146101d757806366fab57c146101f55780636a1c6e78146102135780636f7bc9be14610231578063715018a6146102625761012c565b806311eac8551461013157806312f9b48e1461014f57806316c9c8e01461017f57806320933c7b1461019d5780632afcf480146101bb575b600080fd5b610139610380565b6040516101469190611021565b60405180910390f35b61016960048036038101906101649190611077565b6103a6565b6040516101769190611021565b60405180910390f35b6101876103e5565b60405161019491906110bf565b60405180910390f35b6101a56103f8565b6040516101b291906110e9565b60405180910390f35b6101d560048036038101906101d09190611077565b6103fd565b005b6101df6106a2565b6040516101ec91906110e9565b60405180910390f35b6101fd6106a8565b60405161020a91906110e9565b60405180910390f35b61021b6106ad565b60405161022891906110e9565b60405180910390f35b61024b60048036038101906102469190611130565b6106b2565b60405161025992919061115d565b60405180910390f35b61026a6106e3565b005b6102746106f7565b60405161028191906110e9565b60405180910390f35b6102926106fd565b005b61029c610936565b6040516102a991906110e9565b60405180910390f35b6102ba61093c565b6040516102c79190611021565b60405180910390f35b6102d8610965565b6040516102e591906110e9565b60405180910390f35b6102f6610972565b6040516103039190611021565b60405180910390f35b61032660048036038101906103219190611077565b610998565b005b610330610c38565b60405161033d91906110e9565b60405180910390f35b610360600480360381019061035b9190611130565b610c3e565b005b61036a610cc4565b6040516103779190611021565b60405180910390f35b600160009054906101000a900473ffffffffffffffffffffffffffffffffffffffff1681565b600a81815481106103b657600080fd5b906000526020600020016000915054906101000a900473ffffffffffffffffffffffffffffffffffffffff1681565b600860009054906101000a900460ff1681565b604681565b600860009054906101000a900460ff161561044d576040517f08c379a0000000000000000000000000000000000000000000000000000000008152600401610444906111e3565b60405180910390fd5b60008111610490576040517f08c379a00000000000000000000000000000000000000000000000000000000081526004016104879061124f565b60405180910390fd5b600454816005546104a1919061129e565b11156104e2576040517f08c379a00000000000000000000000000000000000000000000000000000000081526004016104d99061131e565b60405180910390fd5b610531333083600160009054906101000a900473ffffffffffffffffffffffffffffffffffffffff1673ffffffffffffffffffffffffffffffffffffffff16610cea909392919063ffffffff16565b6000600960003373ffffffffffffffffffffffffffffffffffffffff1673ffffffffffffffffffffffffffffffffffffffff16815260200190815260200160002060000154036105df57600a339080600181540180825580915050600190039060005260206000200160009091909190916101000a81548173ffffffffffffffffffffffffffffffffffffffff021916908373ffffffffffffffffffffffffffffffffffffffff1602179055505b80600960003373ffffffffffffffffffffffffffffffffffffffff1673ffffffffffffffffffffffffffffffffffffffff1681526020019081526020016000206000016000828254610631919061129e565b92505081905550806005600082825461064a919061129e565b925050819055503373ffffffffffffffffffffffffffffffffffffffff167fc3f75dfc78f6efac88ad5abb5e606276b903647d97b2a62a1ef89840a658bbc38260405161069791906110e9565b60405180910390a250565b60055481565b600a81565b601481565b60096020528060005260406000206000915090508060000154908060010160009054906101000a900460ff16905082565b6106eb610d6c565b6106f56000610df3565b565b60065481565b600860009054906101000a900460ff1661074c576040517f08c379a00000000000000000000000000000000000000000000000000000000081526004016107439061138a565b60405180910390fd5b6000600960003373ffffffffffffffffffffffffffffffffffffffff1673ffffffffffffffffffffffffffffffffffffffff168152602001908152602001600020905060008160000154116107d6576040517f08c379a00000000000000000000000000000000000000000000000000000000081526004016107cd906113f6565b60405180910390fd5b8060010160009054906101000a900460ff1615610828576040517f08c379a000000000000000000000000000000000000000000000000000000000815260040161081f90611462565b60405180910390fd5b600081600001549050600060055460646108429190611482565b8260466006546108529190611482565b61085c9190611482565b61086691906114f3565b905060008183610876919061129e565b905060018460010160006101000a81548160ff0219169083151502179055506108e23382600160009054906101000a900473ffffffffffffffffffffffffffffffffffffffff1673ffffffffffffffffffffffffffffffffffffffff16610eb79092919063ffffffff16565b3373ffffffffffffffffffffffffffffffffffffffff167fb004f7aadbfea4b10f6f35375d79abef1a89e2583430bf75c24bf2f3dca7cfd58260405161092891906110e9565b60405180910390a250505050565b60075481565b60008060009054906101000a900473ffffffffffffffffffffffffffffffffffffffff16905090565b6000600a80549050905090565b600260009054906101000a900473ffffffffffffffffffffffffffffffffffffffff1681565b6109a0610d6c565b600860009054906101000a900460ff16156109f0576040517f08c379a00000000000000000000000000000000000000000000000000000000081526004016109e7906111e3565b60405180910390fd5b600554811015610a35576040517f08c379a0000000000000000000000000000000000000000000000000000000008152600401610a2c90611596565b60405180910390fd5b80600781905550600554600754610a4c91906115b6565b6006819055506001600860006101000a81548160ff021916908315150217905550600060646014600654610a809190611482565b610a8a91906114f3565b905060006064600a600654610a9f9190611482565b610aa991906114f3565b90506000821115610b2457610b23600260009054906101000a900473ffffffffffffffffffffffffffffffffffffffff1683600160009054906101000a900473ffffffffffffffffffffffffffffffffffffffff1673ffffffffffffffffffffffffffffffffffffffff16610eb79092919063ffffffff16565b5b600081118015610b835750600073ffffffffffffffffffffffffffffffffffffffff16600360009054906101000a900473ffffffffffffffffffffffffffffffffffffffff1673ffffffffffffffffffffffffffffffffffffffff1614155b15610bf857610bf7600360009054906101000a900473ffffffffffffffffffffffffffffffffffffffff1682600160009054906101000a900473ffffffffffffffffffffffffffffffffffffffff1673ffffffffffffffffffffffffffffffffffffffff16610eb79092919063ffffffff16565b5b7fd7d927afebe741cb5c16b6a2a177dd4c4ac5de128311dc6c6b1a9ad33063bfd583600654604051610c2b9291906115ea565b60405180910390a1505050565b60045481565b610c46610d6c565b600073ffffffffffffffffffffffffffffffffffffffff168173ffffffffffffffffffffffffffffffffffffffff1603610cb85760006040517f1e4fbdf7000000000000000000000000000000000000000000000000000000008152600401610caf9190611021565b60405180910390fd5b610cc181610df3565b50565b600360009054906101000a900473ffffffffffffffffffffffffffffffffffffffff1681565b610d66848573ffffffffffffffffffffffffffffffffffffffff166323b872dd868686604051602401610d1f93929190611613565b604051602081830303815290604052915060e01b6020820180517bffffffffffffffffffffffffffffffffffffffffffffffffffffffff8381831617835250505050610f36565b50505050565b610d74610fd8565b73ffffffffffffffffffffffffffffffffffffffff16610d9261093c565b73ffffffffffffffffffffffffffffffffffffffff1614610df157610db5610fd8565b6040517f118cdaa7000000000000000000000000000000000000000000000000000000008152600401610de89190611021565b60405180910390fd5b565b60008060009054906101000a900473ffffffffffffffffffffffffffffffffffffffff169050816000806101000a81548173ffffffffffffffffffffffffffffffffffffffff021916908373ffffffffffffffffffffffffffffffffffffffff1602179055508173ffffffffffffffffffffffffffffffffffffffff168173ffffffffffffffffffffffffffffffffffffffff167f8be0079c531659141344cd1fd0a4f28419497f9722a3daafe3b4186f6b6457e060405160405180910390a35050565b610f31838473ffffffffffffffffffffffffffffffffffffffff1663a9059cbb8585604051602401610eea92919061164a565b604051602081830303815290604052915060e01b6020820180517bffffffffffffffffffffffffffffffffffffffffffffffffffffffff8381831617835250505050610f36565b505050565b600080602060008451602086016000885af180610f59576040513d6000823e3d81fd5b3d925060005191505060008214610f74576001811415610f90565b60008473ffffffffffffffffffffffffffffffffffffffff163b145b15610fd257836040517f5274afe7000000000000000000000000000000000000000000000000000000008152600401610fc99190611021565b60405180910390fd5b50505050565b600033905090565b600073ffffffffffffffffffffffffffffffffffffffff82169050919050565b600061100b82610fe0565b9050919050565b61101b81611000565b82525050565b60006020820190506110366000830184611012565b92915050565b600080fd5b6000819050919050565b61105481611041565b811461105f57600080fd5b50565b6000813590506110718161104b565b92915050565b60006020828403121561108d5761108c61103c565b5b600061109b84828501611062565b91505092915050565b60008115159050919050565b6110b9816110a4565b82525050565b60006020820190506110d460008301846110b0565b92915050565b6110e381611041565b82525050565b60006020820190506110fe60008301846110da565b92915050565b61110d81611000565b811461111857600080fd5b50565b60008135905061112a81611104565b92915050565b6000602082840312156111465761114561103c565b5b60006111548482850161111b565b91505092915050565b600060408201905061117260008301856110da565b61117f60208301846110b0565b9392505050565b600082825260208201905092915050565b7f50726f6a65637420616c7265616479206c697175696461746564000000000000600082015250565b60006111cd601a83611186565b91506111d882611197565b602082019050919050565b600060208201905081810360008301526111fc816111c0565b9050919050565b7f43616e6e6f7420696e76657374207a65726f0000000000000000000000000000600082015250565b6000611239601283611186565b915061124482611203565b602082019050919050565b600060208201905081810360008301526112688161122c565b9050919050565b7f4e487b7100000000000000000000000000000000000000000000000000000000600052601160045260246000fd5b60006112a982611041565b91506112b483611041565b92508282019050808211156112cc576112cb61126f565b5b92915050565b7f45786365656473206361706974616c206c696d69740000000000000000000000600082015250565b6000611308601583611186565b9150611313826112d2565b602082019050919050565b60006020820190508181036000830152611337816112fb565b9050919050565b7f50726f6a656374206e6f74206c69717569646174656420796574000000000000600082015250565b6000611374601a83611186565b915061137f8261133e565b602082019050919050565b600060208201905081810360008301526113a381611367565b9050919050565b7f4e6f20696e766573746d656e7420666f756e6400000000000000000000000000600082015250565b60006113e0601383611186565b91506113eb826113aa565b602082019050919050565b6000602082019050818103600083015261140f816113d3565b9050919050565b7f416c726561647920636c61696d65640000000000000000000000000000000000600082015250565b600061144c600f83611186565b915061145782611416565b602082019050919050565b6000602082019050818103600083015261147b8161143f565b9050919050565b600061148d82611041565b915061149883611041565b92508282026114a681611041565b915082820484148315176114bd576114bc61126f565b5b5092915050565b7f4e487b7100000000000000000000000000000000000000000000000000000000600052601260045260246000fd5b60006114fe82611041565b915061150983611041565b925082611519576115186114c4565b5b828204905092915050565b7f53616c6520616d6f756e74206d7573742065786365656420746f74616c20696e60008201527f766573746d656e74000000000000000000000000000000000000000000000000602082015250565b6000611580602883611186565b915061158b82611524565b604082019050919050565b600060208201905081810360008301526115af81611573565b9050919050565b60006115c182611041565b91506115cc83611041565b92508282039050818111156115e4576115e361126f565b5b92915050565b60006040820190506115ff60008301856110da565b61160c60208301846110da565b9392505050565b60006060820190506116286000830186611012565b6116356020830185611012565b61164260408301846110da565b949350505050565b600060408201905061165f6000830185611012565b61166c60208301846110da565b939250505056fea2646970667358221220a77c6ae0e67d8ec1a75e33d5ec319292eb9e6a879e4a3f17d355aa34759b9a5564736f6c63430008140033",
  "linkReferences": {},
  "deployedLinkReferences": {}
}